:100000000C94E7030C9404040C9404040C9404046E
:100010000C9404040C9404040C9404040C94040440
:100020000C9404040C9404040C9463120C948B162A
:100030000C94FA260C9404040C9404040C94040408
:100040000C9404040C9404040C9404040C94040410
:100050000C9404040C943A130C9404040C940404BB
:100060000C9404040C9404040C9404040C940404F0
:100070000C9404040C9404040C9404040C940404E0
:100080000C9404040C9404040C9404040C940404D0
:100090000C9404040C9404040C9404040C940404C0
:1000A0000C9404040C9404040C94040405010980C9
:1000B000A101850319012AB700150126B700950192
:1000C00075108100C0050C0901A101850419012AE0
:1000D000A002150126A002950175108100C005013E
:1000E0000906A1018505050719E029E71500250185
:1000F0009508750181020507190029EF15002501F2
:1001000095F075018102050819012905950575010C
:100110009102950175039101C005010902A1010930
:1001200001A100050919012905150025019505758D
:10013000018102950175038101050109300931151D
:1001400081257F95027508810609381581257F95DF
:100150000175088106050C0A38021581257F950175
:1001600075088106C0C005010906A101050719E04F
:1001700029E715002501950875018102950175088B
:1001800081010507190029FF150026FF0095067556
:100190000881000508190129059505750191029549
:1001A0000175039101C0000101010101010101017B
:1001B0000202020202020202020303030303030318
:1001C00003040404040404040505050505060606E5
:1001D0000606070707070708080808090909090AA2
:1001E0000A0A0B0B0B0C0C0C0D0D0D0E0E0E0F0F47
:1001F0000F101011111112121313141415151616D5
:100200001717181819191A1A1B1B1C1D1D1E1E1F43
:100210002020212222232424252626272829292A92
:100220002B2C2D2D2E2F30313232333435363738BA
:10023000393A3B3C3D3E3F404142434445464748B6
:10024000494A4C4D4E4F50515354555658595A5B8C
:100250005D5E5F616264656668696B6C6D6F70722C
:10026000737577787A7B7D7E8082838587888A8C98
:100270008E8F91939596989A9C9EA0A2A3A5A7A9CC
:10028000ABADAFB1B3B5B7BABCBEC0C2C4C6C9CBC3
:10029000CDCFD1D4D6D8DBDDDFE2E4E7E9EBEEF079
:1002A000F3F5F8FAFDFFFFAA7F5540222325262803
:1002B000292A2C2D2F3032333536383A3B3D3E40FB
:1002C00042434547494A4C4E5051535557595A5C41
:1002D0005E6062646668696B6D6F71737577797B58
:1002E0007D7F81838587898A8C8E90929496989A57
:1002F0009C9E9FA1A3A5A7A8AAACAEAFB1B3B4B66C
:10030000B8B9BBBCBEBFC1C2C3C5C6C7C9CACBCCC6
:10031000CDCED0D1D2D2D3D4D5D6D7D7D8D9D9DA99
:10032000DADBDBDBDCDCDCDCDCDDDDDDDDDCDCDC0E
:10033000DCDCDBDBDBDADAD9D9D8D7D7D6D5D4D336
:10034000D2D2D1D0CECDCCCBCAC9C7C6C5C3C2C10B
:10035000BFBEBCBBB9B8B6B4B3B1AFAEACAAA8A768
:10036000A5A3A19F9E9C9A98969492908E8C8A8920
:10037000878583817F7D7B79777573716F6D6B69FD
:1003800068666462605E5C5A5957555351504E4CD2
:100390004A4947454342403E3D3B3A383635333281
:1003A000302F2D2C2A29282625232200000000008A
:1003B0000000000000000000000000000000007EBF
:1003C0000F00D4FFFFFFC70000007800000000000E
:1003D0000000002A2B2800000000000000000000A0
:1003E00000000000000029000000002C1E34202125
:1003F0002224342627252E362D3738271E1F20216C
:1004000022232425263333362E37381F04050607CA
:1004100008090A0B0C0D0E0F1011121314151617E4
:1004200018191A1B1C1D2F3130232D350405060702
:1004300008090A0B0C0D0E0F1011121314151617C4
:1004400018191A1B1C1D2F3130354C01014F0104A6
:100450003130307C0101520002582B002900E100AC
:10046000015100001E00140004001D00E000010006
:100470001F001A0016001B0064002800200008005E
:1004800007000600E2002C432100150009001900B6
:10049000E3000100220017000A00050000006900C7
:1004A0004C0001000000000F00006A002E00010057
:1004B000000000070000AA0023001C000B00110030
:1004C0000000A900240018000D001000E7004B00F8
:1004D00025000C000E003600E6002C41260012001C
:1004E0000F00370064002800270013003300380095
:1004F000E4004E002A002F003400E5000151000006
:100500000100010001000100010000003A000100AB
:1005100001000100010001003B0001000100010099
:10052000010001003C000100010001000100010088
:100530003D00010001000100010001003E0001003A
:1005400001000100000046003F0001000000010022
:100550000000010040000100000001000000010057
:1005600041002D0050002D02000001004200260431
:1005700051002F0401000100430027045200300401
:1005800001000100440030024F00010001000100A1
:100590004500300032026402010001000100010048
:1005A0000100010001000000010001000100010044
:1005B0000100000001000100010001000100010034
:1005C0000100010050000100010001000100520083
:1005D0005100010001000100010001004F00010075
:1005E0000100010001000100010001000000010004
:1005F00001000100000001000000010001000100F5
:1006000000000100000001000100FD000100FB00EE
:10061000000001000100FE00F200FA0001000100EC
:100620000100F000F100F9000100F4000100FF00FA
:10063000F300FC000100F50001002D5D0100010048
:1006400001000100010001000100010001000000A3
:100650000100010001000100010000000100010093
:100660000100010001000100010001000100010082
:100670000100010001000100010001000100010072
:100680000100010001000100010001000100010062
:100690000100010000000100010001000000010054
:1006A0000000010001000100000001000000010045
:1006B00001000100010062000000010001005F0074
:1006C0005C00590001000100010060005D005A005B
:1006D00001000100010061005E005B0001000100FB
:1006E0000100010001000100010001000100010002
:1006F000010001000100000032190A00047F3F1FC1
:10070000643214643214783C1E1E140A0509025423
:1007100000030100A0FA090400000103010100091F
:1007200021110100012240000705810308000A0988
:100730000401000103010200092111010001224D01
:10074000000705820308000A0904020001030000F3
:1007500000092111010001226D000705830320001B
:100760000A120110010000000897327549010001CA
:1007700002000122034500720067006F0044006F11
:10078000007800200045005A0020005300680069EE
:10079000006E006500000030035A00530041002045
:1007A0000054006500630068006E006F006C006F0D
:1007B000006700790020004C006100620073002097
:1007C0000049006E006300000004030904001124C6
:1007D0001FBECFEFDAE0DEBFCDBF23E0A0E9B1E07E
:1007E00001C01D92A035B207E1F711E0A0E0B1E031
:1007F000E2E6F5E502C005900D92A039B107D9F700
:100800000E944E230C94702A0C940000E8EDF0E056
:1008100080818E7F80831092E2001092DA00109225
:10082000E100A0EEB0E08C9181608C9380818F77A5
:10083000808319BCA7EDB0E08C918E7F8C93808172
:100840008F7E808310921A0308952091E4003091E6
:10085000E50095E6A9012091EC00822F817020FF30
:1008600006C08091E80080FF06C080E008952091D6
:10087000E80022FD1AC080913F03882389F085306B
:1008800089F08091EB0085FD0FC02091E40030914C
:10089000E50042175307F9F29150E1F684E008951C
:1008A00082E0089583E0089581E00895EF92FF9239
:1008B0000F931F93CF937C018B010E942504C82FB7
:1008C000811117C08091E80085FD0BC08091E80080
:1008D0008E778093E8000E942504882399F3C82F1F
:1008E00008C0F70181917F018093F1000150110947
:1008F00049F78C2FCF911F910F91FF90EF900895A2
:100900008091410387FF13C08091E80082FF06C0F9
:100910008091E8008B778093E80004C080913F03CA
:100920008111F2CF089580913F038823D9F38091FC
:10093000E80080FFF8CF8091E8008E77ECCF982F09
:100940009093E900242F762F50E0891731F07091B1
:10095000EC002091ED005091F00021FD07C09F5F59
:10096000973071F78093E90081E008953091EB00B2
:100970003E7F3093EB003091ED003D7F3093ED00F2
:100980003091EB0031603093EB007093EC002093DA
:10099000ED005093F0002091EE0027FDE0CF80E0C5
:1009A0000895CF92DF92EF92FF920F931F93CF9310
:1009B000DF93C8EDD0E088818F7E8883E7EDF0E09B
:1009C00080818160808384E082BF81E080931A030C
:1009D00088818E7F888302EE10E0F80110821092E9
:1009E000DA0081EEC82ED12CF601108288818F7733
:1009F000888388818068888388818F7D888319BCFB
:100A000010923F031092400310923E0310923D0358
:100A100090EEE92EF12CF70180818B7F8083888115
:100A20008160888342E060E080E00E949F04F601DC
:100A300080818E7F8083F8018081816080838081C6
:100A400088608083F70180818E7F808388818061C8
:100A50008883DF91CF911F910F91FF90EF90DF90EE
:100A6000CF900895FC018091470390914803861729
:100A70009707A0F06115710529F49091E8009E7721
:100A80009093E80090E06115710551F4911108C050
:100A90008091E80082FF34C080E00895BC01F2CF6D
:100AA00080913F038823C1F18530C1F18091E80036
:100AB00083FD30C08091E80082FDEACF8091E8009C
:100AC00080FFE1CF8091F3002091F200382F611573
:100AD000710519F02830310558F091E028303105C2
:100AE00009F090E02091E8002E772093E800CBCF2A
:100AF00081918093F100615071092F5F3F4FE7CFE3
:100B000080913F03882341F0853041F08091E800D7
:100B100083FFBECF81E0089582E0089583E00895C9
:100B2000089580911C03089590910603803F59F425
:100B30008091070387FF0DC01092070391110BC02E
:100B40001092020308C0813F81F4809107031816B8
:100B50009CF3992381F08091080390910903892BDC
:100B600009F064C01092FF020895823F49F497FF94
:100B7000F0CF10920603809107038111ECCFE0CFF4
:100B8000833F19F41916ACF3E4CF20910803893F91
:100B900029F41216F4F610920803DBCF8A3F19F4F9
:100BA00027FFD7CFF8CF209109038B3F29F427FFE8
:100BB000D0CF10920903CDCF8C3F19F41216CCF38D
:100BC000C8CF843F31F4809105038E7F8093050365
:100BD000C0CF853F21F4809105038D7FF7CF863FFD
:100BE00021F4809105038B7FF1CF873F21F4809121
:100BF0000503877FEBCF883F21F4809105038F7E2B
:100C0000E5CF8D3F31F48091C3028E7F8093C30284
:100C1000A0CF8E3F21F48091C3028D7FF7CF8F3F0D
:100C200009F097CF8091C3028B7FF0CF0895809118
:100C3000C30280FD1AC081FD14C082FD14C08091E2
:100C4000FF02882391F08C3370F427E0829FC0016B
:100C500011246CE370E00E940828862F672B29F08E
:100C6000089583E0089587E0089581E008958091D4
:100C7000C30280FD16C081FD16C082FD18C08091A0
:100C80000203882391F08C3390F423E2829FC00109
:100C900011246CE370E00E940828862F672B49F02E
:100CA000089588E0089581E1089585E0089583E23C
:100CB000089581E00895803F31F40E9437068195C0
:100CC000809307030895813F19F40E943706F8CFF7
:100CD000823F31F40E943706819580930603089580
:100CE000833F19F40E943706F8CF893F29F40E9408
:100CF00017068093080308958A3F21F40E9417067F
:100D00008195F7CF8B3F31F40E9417068195809330
:100D1000090308958C3F19F40E941706F8CF843F09
:100D200031F4809105038160809305030895853F28
:100D300021F4809105038260F7CF863F21F48091F2
:100D400005038460F1CF873F21F48091050388601B
:100D5000EBCF883F21F4809105038061E5CF8D3F83
:100D600031F48091C30281608093C30208958E3F65
:100D700021F48091C3028260F7CF8F3FB9F7809151
:100D8000C3028460F1CF9C014FB7F8948091BF02F9
:100D90009091C002A091C102B091C2024FBF821BCC
:100DA000930B0895209124012223C9F02091D802A9
:100DB00027FF15C0E62FE695E695E695EE31D8F4C7
:100DC000E80FF92FF11D677021E030E001C0220F1C
:100DD0006A95EAF720958281282322830895FC01F1
:100DE000329608962191621303C0DF0111971C927D
:100DF000E817F907B9F70895209124012223C1F0DB
:100E00002091D80227FF14C0E62FE695E695E695D7
:100E1000EE31F8F4E80FF92FF11D677021E030E0B2
:100E200001C0220F6A95EAF78281822B828308959E
:100E3000FC0132962FEF30E04191641751F02F3FC3
:100E400019F4411101C0232F3F5F3630A9F72F3F1E
:100E500009F40895820F911D27FD9A95FC01628384
:100E600008958091BA0281111092BA02089580917A
:100E7000B9029091B802892B9091B702892B809387
:100E800090019091BA029923A1F0892B809390014F
:100E900080912401882341F18091D80287FF24C0EA
:100EA0008EE1E2E9F1E090E0815000F591110E94BD
:100EB0003107E091DF02F091E0023097E1F080919C
:100EC0002401882359F08091D80287FF07C08091C0
:100ED00090018093910185E0809390010280F381DD
:100EE000E02D80E991E0099486E0DBCF2191222377
:100EF000D9F29F5FD9CF0895E92FEE0FE90FEE0FDA
:100F00008E0F982F977086958695869525E0829FFF
:100F1000F0011124E158FD4F50E040E080E02191C4
:100F200030E0092E02C0369527950A94E2F7217029
:100F30003327042E01C0220F0A94EAF7822B4F5F59
:100F40005F4F4530510559F70895E92FEE0FE90F2E
:100F5000EE0F8E0F982F977041E001C0440F9A95C5
:100F6000EAF786958695869595E0899FF00111248C
:100F7000E158FD4F30E020E070E05191DF01119722
:100F8000CB01022E02C0969587950A94E2F78170F4
:100F900081958527842385278C932F5F3F4F2530AC
:100FA000310559F7089580917E0290914D02981372
:100FB00001C008958F5F8770FACF882341F0809534
:100FC0009091B90289238093B9020C943707089550
:100FD000882339F09091B902982B9093B9020C9420
:100FE00037070895209143023091440228173907AA
:100FF00071F09093440280934302E091DF02F091FC
:10100000E002309721F00084F185E02D09940895E5
:1010100020914102309142022817390771F09093D4
:10102000420280934102E091DF02F091E0023097AA
:1010300021F00680F781E02D09940895E091DF0208
:10104000F091E002309721F00190F081E02D0994B9
:1010500080E00895FA01811101C0FB01099480919B
:10106000F802982F9E7F29F4817082608093F802A5
:1010700008958635E8F381708465F8CFAF92BF920A
:10108000DF92EF92FF920F931F93CF93DF93082F7E
:10109000162FE901E42FF0E0EA55FE4F611111C06F
:1010A000E4915E2F4E2F4983E8835A831B82DF91A0
:1010B000CF911F910F91FF90EF90DF90BF90AF9075
:1010C0000895E62EF12C4491D42EE42FF0E026E092
:1010D000829FC00111242FEF30E0B9010E94F42754
:1010E000802F90E0880F991F55E5569FD001579F9C
:1010F000B00D11248A1B9B0B982F990F890F590152
:10110000AE18BF08AE9ED001AF9EB00DBE9EB00D12
:1011100011245B2F189F80011124012F11275901E1
:10112000A01AB10AAE9E8001AF9E100DBE9E100D9A
:1011300011245901A81AB108AE9CC001AF9C900DB2
:10114000BE9C900D1124892F9927281B390B2E9FA7
:10115000C0012F9F900D3E9F900D1124E92F62300A
:101160007105A1F050F46115710509F49CCF61304F
:10117000710581F0EB2F512F96CF6430710569F026
:1011800080F06630710509F48ECFF4CFE42F4B2F39
:10119000592F89CFE42F412F86CFEB2F542F492F82
:1011A00082CF4B2F5D2DE12F7ECF9091D80292FF01
:1011B00006C0282F28712830F9F4877F846093FFB8
:1011C00006C0282F28712831F1F4877E8461209190
:1011D000D90220FF06C0382F38713830D9F4877F04
:1011E000816021FF06C0282F28712831D1F4877E25
:1011F000816194FD877E0895282F24712430F9F6AB
:101200008B7F8860DCCF282F2471243101F78B7EFF
:101210008861DDCF382F3171313019F78E7F8860CA
:10122000E0CF282F2171213121F78E7E8861E1CF17
:10123000CF93DF93972F70E026E0929F600D711D92
:101240001124FB0134E5839FE00DF11D1124EE0F05
:10125000FF1FE85AFB4FC591D491CE01C238D1058A
:10126000B9F1E8F5C133D10509F499C050F5C93297
:10127000D10509F48DC0CA32D10509F497C0C11552
:1012800021E5D20708F0BFC0C11530E5D30708F04B
:1012900016C1C83ED10508F09DC0C03ED10568F515
:1012A000C83AD10508F089C0C53AD10508F0FFC099
:1012B000C130D10511F1209709F443C02497E8F417
:1012C00040C0C533D10509F45CC0C933D105B9F6B6
:1012D0002091D802237089F080EE90E00EC0C33ECA
:1012E000D10591F168F4C03ED105F9F0C23ED105B7
:1012F00031F62091D80222FD20C0DF91CF910895D0
:10130000C63ED10561F1C73ED10581F1C43ED1058C
:1013100009F0B5CF2091D90221FFEFCF8091D802FB
:1013200084FD0FC087EE90E0E8CF2091D80220FD29
:1013300012C13091D90230FFE0CF83EE90E024FF5C
:10134000DCCF90E080E0D9CF2091D80222FD06C109
:101350003091D90230FDC0CF24FFCFCFF2CF209102
:10136000D80223FFCACF24FDECCFDCCF2091D802D6
:1013700023FDF7C03091D90231FFEECF84EE90E02B
:10138000BCCF2091D80225FFB8CF89E290E0B5CF3D
:101390002091D80225FFB1CF85E390E0AECF209118
:1013A000D80226FFAACF8AE290E0A7CF2091D802E8
:1013B00026FFA3CF81E390E0A0CFCF3BD10508F675
:1013C000C85AD0E0CC0FDD1FCD5ADE4F88819981FD
:1013D000946493CFC11520E2D20760F4C11531E0C7
:1013E000D30708F08ACFCE019065C03FD10508F041
:1013F00084CFA7CFC11580E4D80708F4A2CFCE01CF
:101400009F70906A7ACFC11595E5D90710F5C1157F
:1014100024E5D20708F088C0C11533E5D30708F0EA
:101420006FC0C11582E5D80708F465C09E0123701E
:10143000332781E090E002C0880F991F2A95E2F7D8
:10144000C695C69520E2C29FE00111248C2B9D2BEE
:1014500050C0C11599E5D907A0F4C11528E5D207F8
:1014600008F067C0C11536E5D30708F06ACF8C2FA6
:101470000E94D50890E0982F882788279F71906256
:101480003CCFC1158AE5D80708F458C0CE01905664
:101490008115904208F055CF8D2F8F710E94D5088D
:1014A00090E0982F882788279F718C2BE8CFC55A0A
:1014B000D0E0C05BDE4F888190E090641ECF9E013B
:1014C000E4E036952795EA95E1F723708C2F869511
:1014D0008695837030E2839FC0011124922BC370E4
:1014E00021E030E002C0220F331FCA95E2F7822BC1
:1014F000932B9C6802CF9C2F8827816F906AFDCE2A
:101500009E012370332781E090E002C0880F991F6D
:101510002A95E2F7C695C69530E2C39FE0011124F3
:101520008C2B9D2B9A68E9CE9C2F8827846F906A1C
:10153000E4CE9C2F8827806F906ADFCE8C2F8F702F
:101540000E94D50834E0D695C7953A95E1F7CF705B
:101550009C2F9069D2CE89E390E0CFCE82EE90E0CE
:10156000CCCE86EE90E0C9CEBF92CF92DF92EF92C2
:10157000FF920F931F93CF93DF938C01C090DB02F8
:10158000D090DC02E090DD02F090DE028091BB02A0
:101590009091BC02A091BD02B091BE02C82AD92A86
:1015A000EA2AFB2ACFE1D0E0BC2ED701C6010C2EDF
:1015B00004C0B695A795979587950A94D2F780FDB4
:1015C0000EC0219788F7B12C8B2DDF91CF911F9101
:1015D0000F91FF90EF90DF90CF90BF900895B801EA
:1015E0008C2F0E941809019761F3EECFCF93DF9300
:1015F000EC010E94B40ABE01DF91CF910C9418094E
:101600000E94F60A292F2F7092959F7092509E305B
:1016100078F4E92FF0E0EE58F54D0C941C28803F4B
:1016200019F020F4883E20F481E00895843FE1F32E
:1016300080E00895883EC0F3813FD1F7F5CF822F37
:10164000869586958695089527982F9808952698CB
:101650002E98089525982D98089556985E98089587
:10166000279A2F9A0895269A2E9A0895259A2D9AA8
:101670000895209828982198299822982A982398A4
:101680002B9852985A9853985B983E98469808958C
:101690008098889A8198899A84988C9A85988D9A4E
:1016A00086988E9A87988F9A0895CF93DF9300D06B
:1016B0000F92CDB7DEB790913F03943019F589832F
:1016C0007B836A8383E08093E9008FEF9091E80049
:1016D000815095FD06C095ED9A95F1F700008111B6
:1016E000F5CF8091E80085FF0DC050E040E063E059
:1016F00070E0CE0101960E9456048091E8008E773A
:101700008093E8000F900F900F90DF91CF91089594
:10171000BC0184E00C94550BBC0183E00C94550B88
:101720009C0182E08093E9009FEF8091E800915056
:1017300085FD06C085ED8A95F1F700009111F5CF82
:101740008091E80085FF0CC050E040E065E070E06B
:10175000C9010E9456048091E8008E778093E800CA
:101760000895CF93DF93EC01809124018823B1F198
:101770008091D80287FF32C060E283E08093E90065
:101780008FEF9091E800815095FD06C095ED9A95F8
:10179000F1F700008111F5CF8091E80085FF1BC0B3
:1017A0008091240170E050E040E0811104C050E0DD
:1017B00040E068E070E0CE010E9456048091E800AD
:1017C0008E778093E80080E2FE01ADE1B3E0019006
:1017D0000D928A95E1F7DF91CF91089568E081E05D
:1017E000CDCFEF92FF920F931F93CF93DF930E9481
:1017F0002D0B0E942A0B0E94270B0E94240B88E8C5
:10180000E82EF12C8FEF90E0F701918380830AE8B6
:1018100010E0F80191838083CCE8D0E0998388833D
:101820000E94360BFFEF20E782E0F150204080401D
:10183000E1F700C000000E94330B9FEFE0E7F2E009
:101840009150E040F040E1F700C000000E94300BF2
:101850002FEF80E792E0215080409040E1F700C0F8
:1018600000000E942A0BEFEFF0E722E0E150F04089
:101870002040E1F700C000000E94270B8FEF90E7A7
:10188000E2E081509040E040E1F700C000000E949B
:10189000240B8091C6028770FFEF8F9FC001112437
:1018A00095958795959587959927F70191838083DD
:1018B000F80191838083998388830E942D0B0E9475
:1018C0002A0B0E94270BDF91CF911F910F91FF9060
:1018D000EF900C94240BCF9384E090E00E94C529F4
:1018E000C82F81E290E00E94C529982F8C2FCF91BC
:1018F0000895CF92DF92EF92FF926B017C010E94DC
:101900002F08B701A60188E090E0FF90EF90DF90EC
:10191000CF900C94EB298091FC02882319F0815020
:101920008093FC026091F8027091F9028091FA02B2
:101930009091FB020C94790C8091FC02833018F496
:101940008F5F8093FC026091F8027091F9028091A0
:10195000FA029091FB020C94790CE8EFF2E083E03C
:10196000808311828FEF82838383148260817181EF
:10197000828193810C94790C6FEE7EEF90E080E091
:101980000E94F72960E082E090E00E94D92960E09F
:1019900083E090E00E94D9291092BB021092BC0211
:1019A0001092BD021092BE0260E084E090E00E94BE
:1019B000D92960E081E290E00E94D92960E085E0C9
:1019C00090E00E94D92960E086E090E00E94D92949
:1019D0006FEF87E090E00E94D92940E050E0BA0123
:1019E00088E090E00E94EB2960E08DE090E00E94AA
:1019F000D92940E050E0BA0188E190E00E94EB294B
:101A000060E087E190E00E94D92940E050E0BA010F
:101A10008CE190E00E94EB2960E080E290E00E947F
:101A2000D92940E050E0BA0188E190E00E94EB291A
:101A30001092C6021092C7021092C8021092C902F8
:101A400084E080618093C6024091C6025091C70233
:101A50006091C8027091C9028FE090E00E94EB296A
:101A600040E050E0BA0183E190E00C94EB29CF9381
:101A7000C82F873070F58091180190911901892B3A
:101A800089F564E670E080E40E94272790931901AD
:101A900080931801892BD1F464E670E082E10E9402
:101AA00083279093190180931801892B79F481E0A1
:101AB00090E001C0880FCA95EAF764E670E080956F
:101AC0000E9483279093190180931801CF910C9461
:101AD000D6278A30B9F040F4883071F0893079F037
:101AE000209A2898CF9108958C3091F070F08D3025
:101AF000B9F73E9A4698F6CF219A2998F3CF229AC1
:101B00002A98F0CF239A2B98EDCF529A5A98EACF81
:101B1000539A5B98E7CFCF93DF938091F80280FDD3
:101B20000BC0EAEBF1E0118210821282138234962C
:101B300051E0E63FF507B9F7CAEBD1E0FE0192812B
:101B400020813181892F291708F4822F381708F452
:101B5000832F8383381B3183281B2083981B928318
:101B6000349681E0E63FF80751F70E94212764E6AA
:101B700070E084E80E94272764E670E088810E9474
:101B8000832764E670E089810E94832764E670E021
:101B90008A810E94832764E670E08B810E948327FC
:101BA000249691E0C63FD90739F70E94D627579A65
:101BB0003BB13F772BB120684FB7F8948AEB91E0A7
:101BC000FC015191CF0168E02BB9000000C057FF24
:101BD0003BB9550F000000C000C000C03BB900C0B9
:101BE0006A9591F7F1E0863F9F0751F74FBF8FE568
:101BF00094E00197F1F700C00000DF91CF910895C4
:101C00008F929F92AF92BF92CF92DF92EF92FF920C
:101C10000F931F93CF93DF93FC01B280948081E0F8
:101C20008483C6EFD1E00AEB11E08BE4A82E882470
:101C30008394EE24EA94F12C2BE4C22ED12C911043
:101C40001DC01B821A8298014A81698188810E9485
:101C50003E0825960C5F1F4F82E0C134D80779F704
:101C6000DF91CF911F910F91FF90EF90DF90CF9078
:101C7000BF90AF909F908F900C948B0D2B8122235F
:101C800009F121502B833C818A2D821B311101C027
:101C9000822F9091FB02899FC0011124B6010E94FE
:101CA000F4276A83211104C0332311F01C82AB8214
:101CB00022E02B1540F28091F90288838091FA028C
:101CC0008983C1CF0E947D28823091400CF0BBCF28
:101CD00082E08B15C0F40E947D28B7010E9408287D
:101CE000888322E02B1590F40E947D282091FA022F
:101CF0002695622F70E00E940828280F29831A82F7
:101D0000AB828C82A0CF8091F902EACF2091FA02B7
:101D1000F5CFEF92FF921F93CF93DF93EC018AEB05
:101D2000E82E81E0F82E10E08C8197014091FB02B3
:101D30006091FA02810F0E943E081F5E84E0E80E67
:101D4000F11C1F3F89F70E948B0D9A818C8190FFB7
:101D500008C08F5F8C83DF91CF911F91FF90EF9030
:101D600008958150F7CFBF92CF92DF92EF92FF920A
:101D70000F931F93CF93DF93FC018281DD24DA94CC
:101D800080FD02C0DD24D3940AEB11E0D0E0C0E076
:101D90002FE0B22EF801118210821282138294E099
:101DA000E92EF12CC12C8091B7018C0D80310CF4FF
:101DB0003DC06B2D0E94E627892F082E000C990B41
:101DC0008C179D0791F48091FB028E9DA0018F9D41
:101DD000500D11245595479555954795980160915B
:101DE000FA028091F9020E943E08CD0CF1E0EF1A50
:101DF000F108C9F621960C5F1F4FCF30D10551F67F
:101E00000E948B0D8091B70191E0D91215C081110C
:101E100011C08EE08093B701DF91CF911F910F9198
:101E2000FF90EF90DF90CF90BF90089587FFC5CFD0
:101E3000815FC3CF8150EECF90E00196BE010E943A
:101E40000828E8CF0F931F93CF93DF93CAEBD1E01D
:101E5000FE011182108212821382349681E0E63FE5
:101E6000F807B9F710E000E08091B801082E000CE7
:101E7000990B081719078CF180911601082E000C98
:101E8000990B801791074CF19E014091FB026091E4
:101E9000FA028091F9020E943E080F5F1F4F2496BC
:101EA0000F30110509F70E948B0D8091150190915B
:101EB000B801980F9093B80120911601280F209334
:101EC0001601121614F49E301CF0819580931501B2
:101ED000DF91CF911F910F910895198218821A8274
:101EE0001B82DBCF8F929F92AF92BF92CF92DF92F5
:101EF000EF92FF920F931F93CF93DF93EC014C81EE
:101F0000042F10E09801D8010E94612A9B01AC01C6
:101F10000E942C2A4B015C01E0E2F0E0E01BF10B97
:101F2000A5E5B0E0AC019B010E942C2A6B017C016D
:101F30009F01DF010E9422289B01AC010E94372AE9
:101F40009B01AC01280D391D4A1D5B1DC701B6015F
:101F50000E943F2AF22E822F90E039E23F15D8F1FD
:101F600043E0249F9001112435952795122F109559
:101F70009AEBC92E91E0D92E00E085E5E82EEF1806
:101F80008E2D01FD8F2D9601412F6091FA020E9446
:101F90003E080F5F54E0C50ED11C0F3089F70E9438
:101FA0008B0D9C8181E0992319F0903219F48FEF09
:101FB0008093170180911701890F8C83DF91CF9156
:101FC0001F910F91FF90EF90DF90CF90BF90AF9057
:101FD0009F908F90089525E530E0A901481B590B8B
:101FE000CA019A01220F331F280F391F37FFBCCFB8
:101FF0002F5F3F4FB9CFEF92FF920F931F93CF9375
:10200000DF938C01CAEBD1E0F12CE12CF801948133
:102010006091FA028091F902F7E0EF16F104FCF406
:102020009923F9F09E014091FB020E943E082FEF98
:10203000E21AF20A24968FE0E816F10439F70E94BA
:102040008B0DF801848190E001968170992784833B
:10205000DF91CF911F910F91FF90EF9008959923F9
:1020600009F39E0140E0E1CF9091F80290FF0DC08E
:10207000EAEBF1E08183608342831382349691E03E
:10208000E63FF907B9F70C948B0D08950F931F9352
:10209000CF93DF9300D000D0CDB7DEB78C01809115
:1020A000B90181110AC09E012F5F3F4F4FEF6FEFC3
:1020B0000E943E088A818093B901F80164816130F1
:1020C00069F08091B90140E0662361F040E0623040
:1020D00011F44091B90180E060E004C06091B90161
:1020E00040E080E00E943410F801848190E0019685
:1020F00063E070E00E94082884830F900F900F9097
:102100000F90DF91CF911F910F910895CF93DF939F
:1021100000D000D0CDB7DEB79091F80290FF0AC092
:102120009E012F5F3F4F0E943E084B8169818A814B
:102130000E9434100F900F900F900F90DF91CF916D
:102140000895CF93DF93EC01EC81F0E0E555FD4F6E
:102150004491E8EFF2E0628181810E9486108C81D7
:102160008F5F8C83DF91CF910895CF93DF93EC0144
:10217000E8EFF2E0438162818C810E9486108C81BD
:102180008F5F8C83DF91CF9108955F926F927F92E2
:102190008F929F92AF92BF92CF92DF92EF92FF9277
:1021A0000F931F93CF93DF9300D000D0CDB7DEB74E
:1021B000182F762E042F622E9091F80290FF29C0DE
:1021C000E92FE695AE2FB0E0AB5DBE4F8C918093CA
:1021D000FD029E7F923089F59E012F5F3F4F812F38
:1021E0000E943E084B8169818A810E9434101093BD
:1021F000F9027092FA020093FB02662051F060919E
:10220000F8027091F9028091FA029091FB020E940B
:10221000790C0F900F900F900F90DF91CF911F913D
:102220000F91FF90EF90DF90CF90BF90AF909F9075
:102230008F907F906F905F900895823019F4009195
:10224000FB02D5CF863019F41091F902D0CF893036
:10225000D9F3893161F6E9518E2F8170582EE695B8
:10226000F0E0EA55FD4FA590B490BB248AEBE82E30
:1022700081E0F82ED12CC12C9FE0892E912CC60133
:10228000B4010E94F427812F511013C0860F9701CB
:10229000402F672D0E943E08CA0CDB1C84E0E80E2C
:1022A000F11C86EFE81681E0F80649F70E948B0DD5
:1022B0009ECF861BECCFE8EFF2E043812CE0421B7F
:1022C00008F440E021E0628181810C94C510E8EFC0
:1022D000F2E043812CE0420F08F44FEF21E06281ED
:1022E00081810C94C510E8EFF2E062812FEF621B50
:1022F00008F460E021E0438181810C94C510E8EF8F
:10230000F2E062812FEF620F08F46FEF21E043816A
:1023100081810C94C510E8EFF2E0818121E04381D6
:1023200062818C500C94C510E8EFF2E0818121E0CD
:1023300043816281845F0C94C510E8EFF2E08081F4
:102340008E7F808360817181828193810E94790C6C
:102350001092FE022FEF80E792E0215080409040E3
:10236000E1F700C000000C948B0D80E290E09093A8
:102370001901809318018091B00181110EC00E9453
:10238000212781E08093B0012FEF83ED90E321506E
:1023900080409040E1F700C0000064E670E080E417
:1023A0000E9427279093190180931801892B09F027
:1023B0004EC064E670E080E00E948327909319018C
:1023C00080931801892B09F042C064E670E080E038
:1023D0000E9483279093190180931801892BB9F5E6
:1023E00064E670E08FE30E94832790931901809345
:1023F0001801892B61F50E94D62764E670E080E41D
:102400000E9427279093190180931801892BF9F4D2
:1024100064E670E08CE00E9483279093190180931A
:102420001801892BA1F464E670E080E00E94832704
:102430009093190180931801892B49F464E670E0A8
:102440008FE30E94832790931901809318010E94C3
:10245000D627809118010895CF93873050F5809149
:10246000180190911901C0E0892B71F464E670E0C5
:1024700081E40E9427279093190180931801892BEA
:1024800031F0C0E00E94D6278C2FCF91089584E6CA
:1024900090E00E94B22797FF05C0909319018093A6
:1024A0001801EFCFC82FC095109219011092180192
:1024B000E9CFCFB18FB1869586958C73C3708C2B85
:1024C000C82FC095E1CF1F920F920FB60F92112423
:1024D0002F933F934F935F936F937F938F939F932C
:1024E000AF93BF93EF93FF938091E10082FF09C008
:1024F0008091E20082FF05C08091E1008B7F809394
:10250000E1008091DA0080FF24C08091D80080FF34
:1025100020C08091DA008E7F8093DA008091D9000C
:1025200080FF9BC080E189BD82E189BD09B400FEC6
:10253000FDCF81E080933F0380911A03811109C090
:102540000E9406040E94D1048091E200846080937E
:10255000E2008091E10080FF17C08091E20080FFDF
:1025600013C08091E2008E7F8093E2008091E200B0
:1025700080618093E2008091D80080628093D800CF
:1025800019BC85E080933F038091E10084FF29C05E
:102590008091E20084FF25C080E189BD82E189BD90
:1025A00089B5982F917080FFFBCF8091D8008F7DE7
:1025B0008093D8008091E1008F7E8093E10080912C
:1025C000E2008F7E8093E2008091E2008160809340
:1025D000E20080914003882309F445C084E08093A1
:1025E0003F038091E10083FF27C08091E20083FFD9
:1025F00023C08091E100877F8093E10082E0809397
:102600003F03109240038091E1008E7F8093E100B0
:102610008091E2008E7F8093E2008091E2008061F1
:102620008093E20042E060E080E00E949F0480919D
:10263000F00088608093F000FF91EF91BF91AF911F
:102640009F918F917F916F915F914F913F912F91CA
:102650000F900FBE0F901F90189519BC10923F035A
:1026600010921A0376CF8091E30087FD93E0909358
:102670003F03B7CF78941F921FB61F9211248F93F8
:102680009F93AF93BF938091BF029091C002A0919E
:10269000C102B091C2020196A11DB11D8093BF027B
:1026A0009093C002A093C102B093C202BF91AF91B8
:1026B0009F918F911F901FBE1F9018952FB7F89470
:1026C0008091BF029091C002A091C102B091C2025C
:1026D0002FBF08950E945E139C0190910603809184
:1026E0000703982B21F03093040320930303909168
:1026F000080380910903982B21F030930103209364
:102700000003E091DF02F091E002309731F00480A5
:10271000F581E02D85E093E0099408951092B802C8
:102720001092B7020E94370785E0E5E0F3E0DF0191
:102730001D928A95E9F7109202031092FF021092FF
:10274000C3020E946A1390E080E00E94080890E0B3
:1027500080E00C94F2076093BB027093BC028093FC
:10276000BD029093BE020C948E131092B902809118
:102770002401E2E9F1E0882359F08091D80287FF33
:1027800007C08EE1DF011D928A95E9F70C948E1344
:1027900086E0F8CF1F93CF93DF93CDB7DEB7AA972C
:1027A0000FB6F894DEBF0FBECDBF81E493E0209159
:1027B000F100DC012D93CD01B3E089349B07B9F71B
:1027C00080914203833009F471C0B8F4813009F478
:1027D00048C0823009F4B2C08091E80083FF83C210
:1027E00080914103909142039A3008F07CC2E92F16
:1027F000F0E0E058F54D0C941C288A3009F48DC0A7
:102800008B3009F470C0893039F7809141038132EF
:1028100019F78091450390914603009711F00297B4
:10282000D9F68091E800877F8093E8008091E800E6
:1028300082FF37C09091F3008091F200029729F453
:102840008091F1008B7F813021F48091F1008093A1
:102850001C038091E8008B778093E8000E9480043D
:10286000BBCF80914103813A09F0B6CF8091E80057
:10287000877F8093E8008091450390914603892BE0
:1028800061F460E28DE193E070E00E943205809196
:10289000E8008B778093E8009FCF60E090E080E0D5
:1028A000F3CF80913F038111C1CF96CF8091410337
:1028B000813A09F091CF8091450390914603892B8D
:1028C00009F08ACF8091E800877F8093E8008091AB
:1028D000E80080FFFCCF809124018093F10080917B
:1028E000E8008E77B9CF80914103813209F074CF2F
:1028F0008091450390914603892B09F06DCF80911B
:10290000E800877F8093E8000E9480048091430361
:10291000809324010E94B5135FCF809141038132DF
:1029200009F05ACF8091E800877F8093E8000E94E9
:1029300080048091440380931B034ECF8091410318
:10294000813A09F049CF8091E800877F8093E800C1
:102950008091E80080FFFCCF80911B03BECF8038C0
:1029600099F0823809F0BFC1809145038F7087309C
:1029700008F0B9C18093E9008091EB0085FB8827BE
:1029800080F91092E90006C080913D0390913E03CA
:10299000911182609091E800977F9093E800809376
:1029A000F1001092F1008091E8008E7798C18823A1
:1029B00009F486C1823009F096C1809143038111E8
:1029C00089C1809145038F702FEF280F263008F0C2
:1029D0008AC18093E9002091EB0020FF7BC19330F6
:1029E00031F48091EB0080628093EB0073C1909191
:1029F000EB0090619093EB0021E030E001C0220FEA
:102A00008A95EAF72093EA001092EA008091EB00A1
:102A10008860EACF811167C1109143031F778091CD
:102A2000E3008078812B8093E3008091E800877F2A
:102A30008093E8000E9480048091E80080FFFCCF32
:102A40008091E30080688093E30082E0111183E0CD
:102A500080933F0348C18058823008F044C12091E0
:102A60004303309144032C3DE3E03E07A1F583E0AE
:102A70008A838AE289834FB7F894DE01139620E0B7
:102A80003EE051E2E32FF0E050935700E49120FF45
:102A900003C0E295EF703F5FEF708E2F90E0EA3059
:102AA000C0F0C7968D939D932F5F243159F74FBF88
:102AB0008091E800877F8093E8006AE270E0CE01B1
:102AC00001960E9432058091E8008B778093E800A0
:102AD0000AC1C096E7CF8091450390914603432FEA
:102AE00055274330510509F44AC078F54130510566
:102AF00009F47AC084E590E0EDE0F7E0423051055A
:102B000009F0F1C02091E800277F2093E800209190
:102B10004703309148038217930708F49C0140E073
:102B20002115310509F065C0411163C08091E800AD
:102B300082FDC9CF80913F03882329F2853019F2A5
:102B40008091E80083FFF2CFBECF4132510509F4F6
:102B50003CC04232510509F0C6C08330910508F0EF
:102B6000C2C0FC01EE0FFF1FEC57FE4F0190F08139
:102B7000E02D8F579E4FDC018C9190E01AC03327D7
:102B800021303105D1F02115310561F022303105B8
:102B900009F0A9C0E3E7F7E0E4918E2F90E0E3E7C6
:102BA000F7E007C0E9ECF7E0E4918E2F90E0E9EC64
:102BB000F7E0009709F497C0A5CFE7E9F7E0E491C3
:102BC0008E2F90E0E7E9F7E0F4CF8330910508F02D
:102BD0008AC0880F991FFC01E657FE4F0190F081D3
:102BE000E02D89E090E08ECF82E190E0E1E6F7E031
:102BF00089CF80913F03882309F465CF853009F49C
:102C000062CF8091E80083FD5ECF8091E80082FD75
:102C10008DCF8091E80080FF83CF9091F300809169
:102C2000F2002115310519F08830910550F041E08E
:102C3000089709F040E08091E8008E778093E800E3
:102C40006FCF44914093F1003196215031090196A4
:102C5000E8CF803809F047C08091E800877F8093F3
:102C6000E800809140038093F1009DCE81113BC02C
:102C7000109143031230B8F58091E800877F80936C
:102C8000E800109340030E948004112311F084E0B7
:102C900005C08091E30087FDFACF81E080933F0378
:102CA00042E061EC81E00E949F0442E061EC82E03E
:102CB0000E949F0442E261EC83E00E949F0413C0E3
:102CC00080914303813079F481E0933009F080E012
:102CD00080933E031092E9008091E800877F809303
:102CE000E8000E9480048091E80083FF0AC0809180
:102CF000E800877F8093E8008091EB0080628093FA
:102D0000EB00AA960FB6F894DEBF0FBECDBFDF91E1
:102D1000CF911F9108951F920F920FB60F92112419
:102D20002F933F934F935F936F937F938F939F93D3
:102D3000AF93BF93CF93DF93EF93FF93D091E900CD
:102D4000DF708091EC00C82FC17080FDC0E8109248
:102D5000E9008091F000877F8093F00078940E94D2
:102D6000CA131092E9008091F00088608093F0000F
:102D7000CD2BCF70C093E900FF91EF91DF91CF9100
:102D8000BF91AF919F918F917F916F915F914F9183
:102D90003F912F910F900FBE0F901F901895882391
:102DA000B1F19CEF980F913A38F4682F80E991E0E7
:102DB0000E94D2060C94370790E2980F983088F45E
:102DC000877021E030E0A90102C0440F551F8A95A9
:102DD000E2F7CA0180959091B90289238093B902E4
:102DE000E9CF9BE5980F933020F490E080E00C94BD
:102DF000080898E5980F973120F490E080E00C9453
:102E0000F207803F20F00E9494050C946A13089505
:102E1000CF93C82F882309F46EC08CEF8C0F813AB2
:102E2000B8F580912401882311F18091D80287FFA1
:102E30001EC0EC2FE695E695E695F0E0E057FE4FD4
:102E4000828190E04C2F477021E030E002C0220FD9
:102E5000331F4A95E2F782239323892B89F06C2F45
:102E600080E991E00E94D2060E94370709C0E2E99A
:102E7000F1E08191C81799F381E0E839F807C9F7C3
:102E80006C2F80E991E00E94FC06CF910C943707EB
:102E900080E28C0F883068F4C77021E030E001C018
:102EA000220FCA95EAF78091B902822B8093B9026A
:102EB000ECCFEBE5EC0FE33040F4F0E0E05BFE4FED
:102EC000808190E0CF910C940808E8E5EC0FE731A1
:102ED00050F4F0E0EE0FFF1FED5AFE4F808191811C
:102EE000CF910C94F207C03F30F08C2F0E945B060C
:102EF000CF910C946A13CF910895CF93C82F0E945D
:102F00000817C93349F42FEF87EE93E02150804032
:102F10009040E1F700C000008C2FCF910C94CF16A9
:102F20000F931F93CF93DF93C62FD42F022FFC0153
:102F300082818823A1F060934B030E945E139093DB
:102F40004A0380934903C77081E001C0880FCA9586
:102F5000EAF7DF91CF911F910F910C94E8078091D0
:102F60004B03681335C08091490390914A030E9436
:102F7000C3068232914060F510E21D0FCD17B9F003
:102F800080E28C0F883040F4C77081E001C0880F68
:102F9000CA95EAF70E94DD07183048F481E09D2FBA
:102FA000977001C0880F9A95EAF70E94E807802F72
:102FB0000E947D17183098F4D77081E001C0880F07
:102FC000DA95EAF7DF91CF911F910F910C94DD070D
:102FD000C77081E001C0880FCA95EAF7F3CFDF918F
:102FE000CF911F910F9108956091F802669570E05E
:102FF0004BE050E08AE091E00E94B829892B19F457
:1030000081E08093FE020E945E139093F30280930E
:10301000F20208959091F80290FF36C091708111EC
:1030200029C092609093F802662351F06091F802F3
:103030007091F9028091FA029091FB020E94790C42
:103040006091F802669570E04BE050E08AE091E014
:103050000E94B829892BA9F01092FE0281E080938A
:10306000F50220E04091FB026091FA028091F902A2
:103070000C94C5108B3210F09465D4CF880F982B28
:10308000D1CF0E94F417EACF0895E8EFF2E08081F3
:103090008160808360E086950C940A1861E00C944E
:1030A0000A188091F8028695815009F48AE261E05D
:1030B0000C940A188091F80286958F5F8B3208F085
:1030C00081E061E00C940A189091F80290FF07C02B
:1030D0009695981720F0961710F40C945A180C94A3
:1030E0004E18CF92DF92EF92FF92CF93DF936B0156
:1030F0007C01C701AA27BB27C0E10097A105B10544
:1031000019F4D701CB01C0E0492F5A2F6B2F772735
:10311000411551056105710519F0C85FDB01CA0150
:10312000AC01BD01E4E07695679557954795EA9522
:10313000D1F7411551056105710519F0CC5FDB012F
:10314000CA01AC01BD0132E0769567955795479568
:103150003A95D1F7411551056105710519F0CE5F1A
:10316000DB01CA01B695A79597958795892B8A2B80
:103170008B2B09F0CF5F0E942D0B0E942A0B0E941F
:10318000270B0E94240BD0914502EFEFEC0FE730A4
:1031900008F055C0F0E0E657F54D0C941C280E944D
:1031A000360BD11163C00E94451860E081E00E9497
:1031B0000A1820E041EC6EEC88EA56C00E94330BFE
:1031C000D11154C00E94451860E081E00E940A18A5
:1031D00020E04AEF66EF82E647C00E94360B0E946D
:1031E000330BD11143C088E090E00E94CD29609359
:1031F000F8027093F9028093FA029093FB0260FF49
:103200003EC0862F81608093F80286950E944E18FA
:103210008091F80286950E944E1821E04091FB02B1
:103220006091FA028091F9021FC00E94360B0E9441
:10323000300BD7CF0E94360B0E94330BF8CFC13032
:1032400009F4AFCFCC2321F0C23009F4B9CFC9CFF4
:10325000D1110CC00E94451860E081E00E940A185C
:1032600020E042EF66EC80E00E94C510C701B60185
:10327000DF91CF91FF90EF90DF90CF9008950E9463
:103280009D11F4CF0E9471186093DB027093DC02F1
:103290008093DD029093DE020C948E130F931F93A4
:1032A00041E050E060E070E004C0440F551F661F2D
:1032B000771F8A95D2F7CB01BA01609570958095FA
:1032C00090950091DB021091DC022091DD0230919B
:1032D000DE0260237123822393231F910F910C94AC
:1032E00042199091B602809589238093B602282FC7
:1032F000277071F4282F082E000C330B9217130639
:1033000039F08595859585950E944E191092B602E3
:1033100008950F931F9341E050E060E070E004C017
:10332000440F551F661F771F8A95D2F78091DB02E5
:103330009091DC02A091DD02B091DE028A019B0136
:10334000082B192B2A2B3B2BC901B8011F910F9178
:103350000C9442194F925F926F927F928F929F923C
:10336000AF92BF92CF92DF92EF92FF920F931F9393
:10337000CF93DF9300D000D00F92CDB7DEB77C01A2
:10338000FC0183819481892B39F01081D180812FB8
:103390008D218F3F09F008C60F900F900F900F906E
:1033A0000F90DF91CF911F910F91FF90EF90DF90E1
:1033B000CF90BF90AF909F908F907F906F905F90D5
:1033C0004F9008950E94B40A082F682F89819A812E
:1033D0000E94A507E12FF0E026E0D29EE00DF11D4E
:1033E000112434E5039FE00DF11D1124EE0FFF1FA2
:1033F000E85AFB4F059114910A328DE5180709F040
:1034000088C0F70182818823C9F18091C60291E0CA
:10341000980F9770887F953008F4892B8093C602A7
:103420008091C6028770FFEF8F9FC0011124959590
:103430008795959587959927909389008093880023
:1034400090938B0080938A0090938D0080938C00E2
:103450004091C6025091C7026091C8027091C902A2
:103460008FE090E00E94EB296091DB027091DC021A
:103470008091DD029091DE020E947118F701928125
:10348000992309F4A2C510924B030230FCE51F07F3
:1034900008F434C206312CE5120738F098012B5F8E
:1034A0003C452730310508F029C20E946B0C9093EF
:1034B000D9028093D8020F303CE5130709F4FFC10D
:1034C00008F079C108309CE5190709F4E2C108F059
:1034D0004EC10430FCE51F0709F4CFC108F034C128
:1034E00002303CE5130709F4C0C103301C4509F460
:1034F000C0C16091D8021091D90284E090E00E948E
:10350000D929612F81E290E00E94D9290E94B51348
:10351000E6C00C322DE5120709F4D1C00D323DE5AD
:10352000130789F10B328DE5180709F4CEC0043F6B
:103530009CE5190709F4F9C098F4093DFCE51F075B
:1035400009F4EFC00A3D2CE5120709F4FAC0083D62
:103550003CE5130709F092CF26E241EE61EE0FC081
:10356000063F8CE5180709F4E8C008F4E2C027E23A
:1035700045EE66EE073FECE51E0709F07FCFC70179
:103580000E949017ACC0F7018281882309F476CF9E
:103590005BE4C52E54E0D52E6AE0662EF601249138
:1035A000222309F46BCF213009F048C03196849171
:1035B000813059F4F2E0CF0ED11CF60184910E94C3
:1035C0007D179FEFC91AD90AE9CF823041F4F2E0A2
:1035D000CF0ED11CF60184910E940817F2CF8330E0
:1035E00041F4F2E0CF0ED11CF60184910E94CF1677
:1035F000E8CF843009F061C0F2E0CF0ED11CF601B3
:10360000249190E080E0F60131962053330B2A306C
:10361000310548F00197A8F2EFE9FFE03197F1F7A3
:1036200000C00000F7CF689EA001699E500D1124D4
:10363000C901840F951F24916F01E5CFE22FF0E0BF
:10364000E553FC4F7490822F86958695869590E081
:10365000FC01E554FC4F84902770912C022E02C08F
:10366000959487940A94E2F731E083229924FC012F
:10367000E555FC4FA490B12C02C0B594A7942A95AF
:10368000E2F781E0A822BB248114910419F081EEB5
:103690000E940817A114B10419F086EE0E940817C1
:1036A000872D0E947D17AB2819F086EE0E94CF1659
:1036B000892809F486CF81EE99CF6F0182CFF70177
:1036C0008281882361F081E03BC1F70182818823F8
:1036D00031F08091450291E08927809345028091E5
:1036E000B602877009F458CEF7018281882309F465
:1036F00053CE82E00F900F900F900F900F90DF91BC
:10370000CF911F910F91FF90EF90DF90CF90BF90DE
:10371000AF909F908F907F906F905F904F900C94A0
:10372000711927E245EE65EE2ACF26E241EE60EE02
:1037300026CF27E245EE64EE22CF26E241EE62EE8E
:103740001ECF28E241E0EFCF8091D80280610630A1
:103750009CE5190709F447C08091D80288600730BA
:103760001C4508F440C08091D80280623CC00B30F8
:10377000FCE51F0709F49BC068F409303CE513071A
:1037800009F48BC00A301C4509F0B3CE8091D802F1
:103790008C6029C08091D8028B7F0D309CE5190781
:1037A00011F18091D8028D7F0E301C45E0F08091A0
:1037B000D802877F18C00B3FFCE51F0709F461C0E2
:1037C00060F502313CE5130709F481C078F400315B
:1037D0009CE5190709F477C08091D8028F7B0131ED
:1037E0001C4509F086CE8093D80283CE0431FCE5D7
:1037F0001F0709F47AC008F470C005311C4509F0B0
:1038000078CE8091D80282FB992790F921E0922707
:1038100090FB82F990FB83F9E6CF0E3F8CE5180709
:1038200009F449C070F40C3FECE51E0771F180917A
:10383000D9028E7F0D3F1C4509F05BCE8093D902E3
:1038400058CE01152DE5120709F44BC060F1013087
:103850001D4509F04ECE8091D902982F9095917018
:103860008E7F892B90FB81F9E9CF8091D80281600E
:10387000BACF8091D8028260B6CF8091D80284609E
:10388000B2CF8091D9028160D9CF8091D902826074
:10389000D5CF8091D8028064A6CF0E94B5138091C5
:1038A000D8028068A0CF8091D9028360C7CF809171
:1038B000D8028E7F98CF8091D9028D7FBFCF809123
:1038C000D8028F7E90CF8091D8028F7D8CCF0E94BE
:1038D000B5138091D8028F7786CF8091D802837FED
:1038E00082CF8091D9028C7FA9CF0E94B51390918D
:1038F000D802892F97FB87F9805875CF8091B9023C
:103900000631ECE51E0709F06EC38A7A91E009F4EE
:1039100090E09093460269E2811165E380E991E0CD
:103920000E94FC060E943707DACE8091F80280FFE1
:1039300003C00E949D11D3CE81608093F8028695CA
:103940000E944E18CCCE41E558E16AE578E10E942C
:103950002A08C5CE4AE558E161E578E1F8CF4BE8A1
:1039600051E164E971E1F3CF44E951E16BE871E1C0
:10397000EECF43E751E16FE771E1E9CF4FE751E166
:1039800063E771E1E4CF4BE551E167E671E1DFCF39
:1039900047E651E16BE571E1DACF4BE85CE06CE9B9
:1039A0007CE0D5CF4CE95CE06BE87CE0D0CF65E013
:1039B00082E00E94641893CE68E086E0FACF6EE061
:1039C00089E0F7CF64E18FE0F4CF67E185E1F1CFE3
:1039D00088E1B6CF62E289E1ECCF83E2B1CF011595
:1039E000FCE51F0709F447C00F3D1C4509F480C0E2
:1039F000F70100811181992309F47DC0C8010E945B
:103A0000B40AD82E682FC8010E94A507B8018D2DD1
:103A10000E9418098C01882EF701A580A2944FE01E
:103A2000A422D280D1101092B8028091B602877081
:103A300099F0DD2089F0812F807F803421F080E2B1
:103A4000800F883048F082E00E9471198091B602A0
:103A50008770CC24C3948111C12CB12EB2943FE065
:103A6000B322FBE0FB1508F480C0EB2DF0E0EF562D
:103A7000F54D0C941C280E94B5133FEF84E39CE0A5
:103A8000315080409040E1F700C00000F89481E0A0
:103A90008093E00080E28093D8001092C900EFE1AB
:103AA000FEE43197F1F700C000001DBA10926800E3
:103AB0001CBC10BE1FBA10927A0010926E001092B9
:103AC0006F0010927100109272001092C900109253
:103AD000BC0014B817B81AB81DB810BA1092BC00C0
:103AE00015B818B81BB81EB811BA0C94003FF7CD22
:103AF0000E94BC0CF4CDC8010E947C07D82E86CF52
:103B0000212F2F70A22E107F19F0A29420EFA22255
:103B1000DD20C9F0AA2069F080E2800F883010F023
:103B200081100BC08091B902A82AA092B9020E940C
:103B30003707802F0E94081718C08091B802A82A62
:103B4000A092B802F4CF802F0E94CF16AA2069F06D
:103B5000A094005E083010F0811046C08091B90238
:103B6000A822A092B9020E9437072B2D2850330BB0
:103B70002430310510F40E941E08CC20A9F0809159
:103B8000B60280FD11C0F701128285958595859555
:103B90000E948919C7010E94AA198091B6028595D1
:103BA000859585950E944E1985E0F701DE011196F5
:103BB00001900D928A95E1F789819A810E947C0794
:103BC0009A81E981F0E026E0929FE00DF11D112439
:103BD00034E5839FE00DF11D1124EE0FFF1FE85A1D
:103BE000FB4F85919491D8CB8091B802A822A092E6
:103BF000B802B9CF312F3F70932E107F103219F0D9
:103C0000929490EF9922882041F081E0881631F15A
:103C1000DD2079F1AA2041F18CCFDD2091F0909147
:103C2000BA02892D892BA11003C00E94E8079DCFFD
:103C3000E1E0AE12FACF981709F497CF8093BA0259
:103C400094CFA11006C00E943107892D0E94DD0784
:103C50008CCFF1E0AF1609F488CFF5CFDD2031F03D
:103C600021E02A1508F481CF892DDFCFA1107DCF67
:103C7000ECCFAA2051F339E383128FC18FEF97EE77
:103C8000E3E081509040E040E1F700C0000085C1D2
:103C9000812F86958695837061F0813009F065CF1C
:103CA000C8019370D11002C090E080E00E94F2073A
:103CB0005CCFC8019370D11002C090E080E00E94F8
:103CC000080853CF802FDD2029F00E945B060E9458
:103CD0006A134BCF0E949405FACF812F837009F0AD
:103CE00066C0D11042CF802F829586958770880F4D
:103CF000880F602F6F70462E512C712C612C082E6E
:103D000004C0440C551C661C771C0A94D2F740E092
:103D100050E0BA0104FF0FC04FE050E060E070E0F7
:103D200004C0440F551F661F771F8A95D2F7409530
:103D3000509560957095812F869586958370823019
:103D400019F1D8F40091BB021091BC022091BD0280
:103D50003091BE02813069F04429552966297729BE
:103D6000CB01BA0160237123822393230E94AB13FA
:103D7000FCCE402A512A622A732ACB01BA01642957
:103D8000752986299729F2CF44295529662977294B
:103D90000091BB021091BC022091BD023091BE0285
:103DA000CB01BA016027712782279327DFCF869541
:103DB000DD2011F0812F8170882309F4D6CE802F69
:103DC000829586958770880F880F602F6F70462EBA
:103DD000512C712C612C082E04C0440C551C661CFF
:103DE000771C0A94D2F740E050E0BA0104FF0FC0FC
:103DF0004FE050E060E070E004C0440F551F661FC4
:103E0000771F8A95D2F74095509560957095812FD0
:103E1000869586958370823019F1D8F40091DB0283
:103E20001091DC022091DD023091DE02813069F0D8
:103E30004429552966297729CB01BA0160237123CA
:103E4000822393230E94421990CE402A512A622A4B
:103E5000732ACB01BA016429752986299729F2CFE3
:103E600044295529662977290091DB021091DC024B
:103E70002091DD023091DE02CB01BA01602771276B
:103E800082279327DFCF1F70DD2029F0812F0E942A
:103E90008919802FCACE802F0E94DD07812F0E94B2
:103EA0004E1963CE802FF2EF8F1609F44EC0F8152D
:103EB00078F020EF821619F131EF831609F43DC036
:103EC000DD2009F465C0A11034CE812F8F713AC076
:103ED00093EF891609F43EC0E4EF8E12F1CFDD2096
:103EE00009F44BC01F71812F0E94891928E0129F8D
:103EF000C001112483608093B602812F23C0DD208E
:103F0000B9F0A11032CE1F7161E070E080E090E066
:103F100004C0660F771F881F991F1A95D2F700916A
:103F2000DB021091DC022091DD023091DE02A6CF8F
:103F3000F1E0FA1508F419CEE6CF812F8F71DD205C
:103F400009F4ADCF0E94891910CE812F8F71DD2029
:103F5000C9F3A5CF60E070E0CB01DD2009F472CF9A
:103F60001F7161E070E080E090E004C0660F771F91
:103F7000881F991F1A95D2F765CF81E00E947119A9
:103F800031E03A1508F0F1CD82E00E947119EDCDD3
:103F9000AA2039F0893309F471CE802F0E94CF1600
:103FA000E4CD812F8F717BCF85E0DE0111960190EA
:103FB0000D928A95E1F7F701228189819A81211179
:103FC00001CA0E947C07082F05CA06311C4509F06A
:103FD0000FCD8091460269E2811165E380E991E0AD
:103FE0000E94D2069FCC8272F801E35CFC45E4316A
:103FF000F10508F0F4CCE356F54D0C941C281F9302
:10400000CF93DF9380914C02807FA9F48091490285
:10401000882389F080917E02D0914D026091470201
:1040200070914802A0914A02B0914B02C62FC7235B
:1040300016E0D81304C0DF91CF911F91089590E04E
:10404000109711F0CF3F19F401968770F2CF189FA7
:104050009001199F300D1124F901E25BFD4F418160
:104060004713F2CF40814613EFCF42814111ECCF8D
:10407000438154814A1B5B0B4232514028F78091A7
:104080004C028F70806180934C02F901ED5AFD4F14
:1040900080818F708061808387E492E00E94AA19FA
:1040A000DF91CF911F910C94D307AF92BF92CF9223
:1040B000DF92EF92FF920F931F93CF93DF93CDB7D1
:1040C000DEB761970FB6F894DEBF0FBECDBF8C018F
:1040D00085E0F801DE011D9601900D928A95E1F7C9
:1040E000F80180819181E28027E4A22E22E0B22EA5
:1040F00060914A0270914B026115710509F43FC14C
:104100003091470240914802232F24232F3F09F486
:1041100036C1C380D480F0904902F601E61BF70B4C
:10412000BF01FF2009F4FBC020914C02522F507FA9
:104130006232714008F0BBC0511178C0FE2C4913A7
:1041400021C038131FC0E1101DC02F7020612093C3
:104150004C02C5010E94AA1980914C02F801858386
:104160008F2D61960FB6F894DEBF0FBECDBFDF91E5
:10417000CF911F910F91FF90EF90DF90CF90BF9064
:10418000AF900895CD2829F0282F29232F3F09F03B
:1041900014C120E0F22FF170DF2E20FF3DC02091EE
:1041A0007E0240914D0256E0241315C08D879E87F4
:1041B0008D859E850E94F60A292F22952F70223028
:1041C000F8F0243020F59F70F9F0F8019581907F88
:1041D000D9F4D12C1FC030E0529FF001539FF00D55
:1041E0001124E25BFD4F6181961306C06081861346
:1041F00003C06281E61210C02F5F3F4F2770D4CFFB
:104200009F7011F0882329F3805E883010F3C80175
:104210000E94AA19FD2CA4CFEE2009F4A1CF809111
:104220004C02816080934C02F12C9ACF491312C04A
:10423000381310C0E1100EC0F8012583C8010E9498
:10424000AA1986E0F801A7E4B2E001900D928A95E0
:10425000E1F786CF8D879E878D859E850E94000B16
:10426000882309F1EE20F9F080914C02803270F041
:10427000209147023091480238872F831986DB86C8
:10428000CA868C87CE0107960E94AA1986E0F8019B
:10429000A7E4B2E001900D928A95E1F70E94FF1F1A
:1042A000FF24F3945DCFC8010E94AA19F9CF5111E0
:1042B0000AC087E492E00E94AA1986E0F5011192F3
:1042C0008A95E9F7B1CF49130FC038130DC0E1103B
:1042D0000BC0F8012583C8010E94AA1986E0F501E8
:1042E00011928A95E9F73CCF8D879E878D859E85B3
:1042F0000E94000B8823B9F2EE20A9F280914C02B3
:10430000803220F220914702309148023A8329837B
:104310001B82DD82CC828E83CE010196B5CF6232C4
:104320007140E0F6FE2CEE2009F4BDCF491316C013
:10433000381314C080914C0280FD83CF982F907F5A
:1043400009F47FCFF8018583903F09F477CF982F48
:10435000907F905F8F70892B858370CF8D879E872C
:104360008D859E850E94000B811190CF80914C021B
:10437000816080934C02C8010E94AA19F1CEEE2000
:1043800009F491CF8D879E878D859E850E94000BB5
:10439000F82E882309F487CF86E0F801A7E4B2E07D
:1043A00001900D928A95E1F7809147029091480221
:1043B0000E94F60A0E94FF1FD3CE21E02E25EACEEE
:1043C0001F93CF93DF93CDB7DEB767970FB6F894FF
:1043D000DEBF0FBECDBF4B8B5C8B6D8B7E8B8F8B0F
:1043E0001A8A198A85E0FE017396DE011D960190F6
:1043F0000D928A95E1F786E0FE013D96DE01179663
:1044000001900D928A95E1F7CE0107960E94552002
:10441000811112C086E0FE013796DE0111960190EF
:104420000D928A95E1F78A859B85892B29F08F81EA
:10443000988589238F3FB1F516E080917E02909197
:104440004D0289131DC067960FB6F894DEBF0FBEEC
:10445000CDBFDF91CF911F91089596E0929FD0013B
:10446000939FB00D1124A25BBD4FFE0131960190C8
:104470000D929A95E1F780934D020E94D307DCCF0D
:10448000819FC0011124825B9D4F0E94552088238B
:10449000D1F280917E0290E00196877099278093F7
:1044A0007E02CBCF20914D0230E0C901019687708A
:1044B000992740917E024817190679F60E94B51394
:1044C00010924D0210927E0286E0E7E4F2E0DF01F6
:1044D0001D928A95E9F7B0CF8F929F92BF92CF92AB
:1044E000DF92EF92FF920F931F93CF93DF93809110
:1044F000180190911901892B91F08091B1018F5F82
:104500008093B10181110BC00E94B51190E090938E
:10451000190180931801892B11F40E94F10B2AECE8
:10452000822E22E0922E740110E000E097E0C92E66
:10453000C00E802F0E94370D8C2D0E94370D802FCA
:104540000E942C12E70199917E01D12C891729F044
:10455000FE0131978083DD24D3948C2D0E942C1290
:10456000F7019681891709F47AC0868381E08D2945
:10457000182B0E94390B0F5F0730C1F60E945E13A3
:104580006091B3017091B4019093B4018093B30131
:104590002091B20130E0261B370B820F931F6BEF87
:1045A00070E00E94F427E82E392F082F8093B20183
:1045B000F090B601FF2009F45EC01092B601E091C0
:1045C000C402F091C502AF01425F5F4F20E08BEF64
:1045D000B82E6BEF70E0A191AB3F99F0CA2ED12CB1
:1045E0008E2D932F0A17E8F18C199D09092E000CC6
:1045F000AA0BBB0B4E97A105B105C8F1DF011197BE
:10460000BC924E175F0739F72093B601111102C013
:10461000211133C01092B501A091C402B091C5021E
:104620009091B601E4EEF2E080E03191E40129914D
:104630004E01321751F03C913B3FD9F40C93AF013E
:1046400041505109EA01288391E01196D2E0E23FFE
:10465000FD0759F79093B6018093B50112C080E031
:1046600086CFDB01AC19BD098A0F9B1FBFCF2F2D51
:10467000C8CF81E0EACF1111CDCF8091B501811172
:10468000C9CF812FDF91CF911F910F91FF90EF90B4
:10469000DF90CF90BF909F908F900895CDB7DEB7F9
:1046A0002F970FB6F894DEBF0FBECDBF84B7877FBC
:1046B00084BF0FB6F894A8958091600088618093BC
:1046C0006000109260000FBE80E890E00FB6F89492
:1046D00080936100909361000FBE85B7806885BFAD
:1046E00085B7806885BF0E9406040E94D10480912E
:1046F000E20084608093E200789480913F038823F5
:10470000A1F01091E9001F709091EC00892F817049
:1047100090FD80E8182B1092E9008091E80083FD5D
:104720000E94CA131F701093E90082E084BD93E0D9
:1047300095BD9AEF97BD80936E000E94B51190E0F1
:1047400090931901809318010E94390B0E94480B25
:10475000EAECF2E0A4EEB2E011921D9222E0E83D14
:10476000F207D1F78EE090E00E948D288093C4027A
:104770009093C502FC010E962BEF2193E817F907E1
:10478000E1F790E080E00E94D3298F3E9E4F11F028
:104790000E94BC0C89EA8093800089E080938100AC
:1047A00024982C983F988AB18F7C8AB96E98479A42
:1047B0008BB180638BB9769A8FE090E00E94CD290F
:1047C0006093C6027093C7028093C8029093C90297
:1047D00067708FEF689FB001112475956795759587
:1047E00067957727709389006093880070938B009A
:1047F00060938A0070938D0060938C000E94F10B8F
:1048000090E080E00E94D3298F3E9E4F11F00E94DD
:10481000BC0C82E090E00E94C52980930B030E94AB
:104820006B0C9093D9028093D80283E090E00E94B1
:10483000C529682F70E090E080E00E94AB13609182
:10484000DB027091DC028091DD029091DE020E9419
:1048500071188091DA02811136C090E080E00E94E8
:10486000D3298F3E9E4F21F00E94BC0C0E94AD0CBC
:1048700088E090E00E94CD296093F8027093F902DD
:104880008093FA029093FB026E7F71F40E94AD0C4C
:1048900088E090E00E94CD296093F8027093F902BD
:1048A0008093FA029093FB020E942F081092FE025E
:1048B0008091F80280FF04C060E086950E940A188B
:1048C00081E08093DA026091DB027091DC028091DA
:1048D000DD029091DE020E9471188AE191E09093CE
:1048E000E0028093DF02A8E1EA2EF12CB0E4CB2EA7
:1048F00084EE92E01EE0D12ED80E80913F03BB24BF
:10490000B39400E112E1853009F4AAC10E946C223F
:10491000ECE0F3E0A4EEB2E010E000E0302F8D9187
:104920002191281709F4B4C190E0BB24B39428273F
:10493000422F4B2109F4A7C19E833F838B2191E035
:1049400009F490E098870E945E138160782F9A871F
:1049500089874E815F8168858A850E94E021F80100
:10496000E45FFC4F8081B826B0828091FE028823EC
:1049700009F441C08091FD02E091F802E695E81B40
:10498000E093F402823009F09AC1F0E0E75FF84F5B
:10499000E4910E2F10E0F1EAAF2EF0E1BF2E8091EE
:1049A000F502882389F01092F5020E945E139801A7
:1049B00020953095820F931F9093F3028093F2021B
:1049C0001092F7021092F6028091F2029091F30297
:1049D0000E94C3068017910770F0E091F202F091F7
:1049E000F3020E0F1F1F1093F3020093F20282EFE7
:1049F00092E0F501099585E0E5E0F3E0DE0111962E
:104A000001900D928A95E1F7B0900603A0900703FC
:104A100010910803009109031092060310920703F6
:104A200010920803109209038B2D8A2909F448C0BB
:104A300080910303909104030E94C3069C0190910E
:104A40000203992309F4D2C125313105C8F19F3FF2
:104A500019F09F5F90930203BB2059F00E94370624
:104A60009FEF1B140CF491E0899F802D11248093FB
:104A70000603AA2059F00E9437069FEF1A140CF47F
:104A800091E0899F802D11248093070330910603C4
:104A90003323B1F020910703222391F045EB340337
:104AA000C0011124992309F476C19093060345EBC4
:104AB000240390011124332309F471C130930703B7
:104AC000812F802B09F448C080910003909101034D
:104AD0000E94C3069C019091FF02992309F481C1B1
:104AE00025313105C8F19F3F19F09F5F9093FF0278
:104AF000112359F00E9417069FEF11160CF491E054
:104B0000899F802D112480930803002359F00E946F
:104B100017069FEF10160CF491E0899F802D112449
:104B200080930903309108033323B1F020910903E6
:104B3000222391F045EB3403C0011124992309F499
:104B400032C19093080345EB2403900111243323D1
:104B500009F42DC130930903809106039091070356
:104B6000892B90910803892B90910903892B11F0CF
:104B70000E946A1385E0FE013196A5E0B3E0019042
:104B80000D928A95E1F70E941E0890910A038917F9
:104B900009F4B3CE0E941E0880930A03AECE809122
:104BA0003F03843009F43DC01092E1020FB6F8943F
:104BB000A895E09260000FBEC09260001092FE02C5
:104BC0008091E302811116C0B092E3028091F80255
:104BD000982F91709093E2028E7F8093F8022FEFCE
:104BE00040E782E0215040408040E1F700C00000F3
:104BF0000E948B0D83B7817F846083BF83B7816000
:104C000083BF7894889583B78E7F83BF0FB6F8945F
:104C1000A895809160008861809360001092600088
:104C20000FBE80913E038823D9F00E94B51190E019
:104C300090931901809318010E94390B0E94480B30
:104C4000E4EEF2E0119292E0E23FF907D9F70E9418
:104C50006C22E4EEF2E081918111ADC0DE12FBCF57
:104C600080913F03853009F49ACF0E94B5130E94CA
:104C70001E081092E3028091E20281110E94451801
:104C80000E94F41743CE9F5FBB0C963009F050CEC4
:104C90000F5F1F4F0E30110509F040CE8FEF8B874D
:104CA0008C871D860E945E138160782F9F878E8778
:104CB0004B855C856D858F850E94E02156CE8630C0
:104CC00059F4F0E0EA5FF84FE4910E2F10E0E5EBC5
:104CD000AE2EE0E1BE2E63CE893061F4E695F0E0C1
:104CE000ED5FF84FE4910E2F10E079E8A72E7EE0FB
:104CF000B72E55CE8F3061F4E695F0E0E050F94FD5
:104D0000E4910E2F10E063EBA62E6EE0B62E47CE98
:104D1000853159F4F0E0E350F94FE4910E2F10E0A3
:104D200052E2A52E5FE0B52E3ACE08E210E022E76F
:104D3000A22E2FE0B22E883109F431CE833249F40D
:104D4000EBEFF6E00591149146E4A42E40E1B42E79
:104D500026CE04EF11E09BEFA92E9FE0B92E8432FE
:104D600009F41DCE853281F48E2F63E00E94DA278C
:104D7000E92FF0E0E850F94FE4910E2F10E030E019
:104D8000A32E3EE0B32E0BCE00ED17E080E9A82E57
:104D900085E0B82E04CE81E08093060388CE81E0C2
:104DA000809307038DCE81E080930803CCCE81E011
:104DB00080930903D1CE09BD19BD09B400FEFDCF12
:104DC0008091D8008F7D8093D8008091E000826030
:104DD0008093E0008091E00081FDFCCF0E94B5133C
:104DE0003FCF2139314008F080CEB6CE232B09F0D9
:104DF00030CE66CE1F921FB61F9211248F939F93C1
:104E0000AF93BF938091E102811113C08091BF02E3
:104E10009091C002A091C102B091C2024196A11D21
:104E2000B11D8093BF029093C002A093C102B093C2
:104E3000C202BF91AF919F918F911F901FBE1F9093
:104E400018951092B9008CE08093B8000895EF9205
:104E5000FF920F931F93CF93DF93182FEB011092C4
:104E6000BC0084EA8093BC000E945E137C018091A8
:104E7000BC0087FF27C08091B900887F883029F067
:104E80008091B900887F8031D9F51093BB0084E808
:104E90008093BC000E945E138C018091BC0087FF50
:104EA00024C02091B900287F90E080E02831B1F043
:104EB00081E090E0203411F490E080E091958195BC
:104EC00091090CC0CF3FDC0791F20E945E138E194E
:104ED0009F098C179D0758F28EEF9FEFDF91CF91BE
:104EE0001F910F91FF90EF900895CF3FDC07A9F23B
:104EF0000E945E13801B910B8C179D0770F2ECCF04
:104F00008FEF9FEFEBCF0F931F93CF93DF93EB01C7
:104F10008093BB0084E88093BC000E945E138C01E8
:104F20008091BC0087FF11C02091B900287F81E0EB
:104F300090E0283211F490E080E0919581959109FC
:104F4000DF91CF911F910F910895CF3FDC0741F37F
:104F50000E945E13801B910B8C179D0708F38EEF48
:104F60009FEFEECF0F931F93CF93DF93EC0184E875
:104F70008093BC000E945E138C018091BC0087FF6F
:104F800008C08091BB0090E0DF91CF911F910F91FD
:104F90000895CF3FDC0789F30E945E13801B910BBD
:104FA0008C179D0750F38EEF9FEFEECF84E980932F
:104FB000BC000895991B79E004C0991F961708F06A
:104FC000961B881F7A95C9F78095089587FB082E50
:104FD000062687FD819567FD61950E94DA270EF40C
:104FE000919507FC81950895AA1BBB1B51E107C051
:104FF000AA1FBB1FA617B70710F0A61BB70B881F69
:10500000991F5A95A9F780959095BC01CD010895F7
:1050100097FB072E16F4009407D077FD09D00E9465
:10502000F42707FC05D03EF4909581959F4F089595
:10503000709561957F4F0895EE0FFF1F0590F491D5
:10504000E02D09940E94612A332312F48A1B9B0BE2
:105050000C942C280E94612AB7FF0895821B930BA1
:1050600008958F929F92AF92BF92CF92DF92EF926C
:10507000FF92CF93DF93EC01688179818A819B81D4
:10508000611571058105910521F464E279ED8BE5E7
:1050900097E02DE133EF41E050E00E940D2A4901F5
:1050A0005A019B01AC01A7EAB1E40E942C2A6B01D2
:1050B0007C01ACEEB4EFA50194010E943A2ADC0118
:1050C000CB018C0D9D1DAE1DBF1DB7FF03C0019709
:1050D000A109B04888839983AA83BB839F77DF9116
:1050E000CF91FF90EF90DF90CF90BF90AF909F90C7
:1050F0008F9008950E943128089580E091E00E94E9
:1051000031280895B0E0A0E0809300019093010160
:10511000A0930201B093030108950F931F93CF93BF
:10512000DF938230910510F482E090E0E0914E032D
:10513000F0914F0330E020E0B0E0A0E0309799F428
:105140002115310509F447C0281B390B24303105DE
:10515000C0F58A819B816115710571F1FB01938313
:105160008283FE0111C04081518102811381481761
:105170005907F8F04817590799F4109761F01296FB
:105180000C93129713961C933296CF01DF91CF9117
:105190001F910F91089500934E0310934F03F4CF86
:1051A0002115310519F04217530718F49A01BD0172
:1051B000EF01DF01F801C2CF90934F0380934E03BC
:1051C000D0CFFE01E20FF31F81939193225031095A
:1051D00039832883DACF20914C0330914D03232B60
:1051E00041F4209106013091070130934D03209343
:1051F0004C0320910401309105012115310541F442
:105200002DB73EB74091080150910901241B350B81
:1052100040914C0350914D034217530708F0B5CF0E
:10522000241B350B2817390708F4AFCFBC016E5F7C
:105230007F4F2617370708F4A8CF640F751F7093A8
:105240004D0360934C03FA01819391939ECFCF93CA
:10525000DF930097E9F0FC01329713821282C0912C
:105260004E03D0914F03DE0130E020E02097A1F4FF
:1052700020813181820F931F20914C0330914D0387
:105280002817390709F067C0F0934D03E0934C03EA
:10529000DF91CF910895DA01AE17BF0708F040C043
:1052A00012964D915C9113979D014115510599F707
:1052B000D9011396FC93EE9312974D915D91A40F33
:1052C000B51FEA17FB0779F4808191810296840F5C
:1052D000951FD90111969C938E9382819381139689
:1052E0009C938E931297B0E0A0E08A819B810097F7
:1052F000B9F5FE0181919191E80FF91F80914C035E
:1053000090914D038E179F0719F6109761F5109233
:105310004F0310924E03D0934D03C0934C03B8CF6C
:10532000B383A28340815181840F951FA817B907C9
:1053300071F44E5F5F4F8D919C911197480F591FEB
:105340005183408312968D919C9193838283211582
:10535000310509F0ADCFF0934F03E0934E0398CFA2
:10536000DE01EC01C2CF13961C921E921297D3CF8E
:10537000FC014150504030F001900616D1F73197B2
:10538000CF010895882799270895F999FECF92BDF6
:1053900081BDF89A992780B50895A6E1B0E044E070
:1053A00050E00C94FF29A8E1B0E042E050E00C94FA
:1053B000FF29262FF999FECF92BD81BDF89A01975A
:1053C00000B4021639F01FBA20BD0FB6F894FA9A4D
:1053D000F99A0FBE08950396272F0E94DA290E949A
:1053E000D929252F0E94DA29242F0C94DA29019635
:1053F000272F0E94DA290C94D929DC01CB01FC016A
:10540000F999FECF06C0F2BDE1BDF89A319600B41D
:105410000D9241505040B8F70895052E97FB1EF4A9
:1054200000940E94242A57FD07D00E943F2A07FCBF
:1054300003D04EF40C94242A509540953095219534
:105440003F4F4F4F5F4F08959095809570956195B0
:105450007F4F8F4F9F4F08950E94612AA59F900D07
:10546000B49F900DA49F800D911D11240895B7FF46
:105470000C942C2A0E942C2A821B930B0895A1E2E3
:105480001A2EAA1BBB1BFD010DC0AA1FBB1FEE1FBE
:10549000FF1FA217B307E407F50720F0A21BB30B09
:1054A000E40BF50B661F771F881F991F1A9469F785
:1054B00060957095809590959B01AC01BD01CF01E1
:1054C0000895A29FB001B39FC001A39F700D811DDD
:1054D0001124911DB29F700D811D1124911D0895FD
:1054E000F894FFCF0F0B0F0B180B180B1A0B180BA0
:1054F000180B180B0F0B0F0B1F0B180B180B1F0B98
:10550000AF14D7147316D71473160A152B15731608
:1055100029163616CF18DE181719ED1815191C198B
:105520001A19801D801DFA1DFA1D481E621EB51D28
:10553000B51D6D1E431F521F521F951CA31CAA1C94
:10554000AF1CB41CB91CBE1CC31CC81CCD1CD21C77
:10555000631BD71CDC1CDF1CE21CE51CE81CEA1CDE
:02556000ED1C40
:105562000100000000005003200001191A1B1C1D3D
:105572001E1F20212201020120009105B10B900B78
:105582008C0B880B010001020202020606060909C1
:10559200090909090F0F0F0F0F0F15151518191902
:1055A200191919191919191923242525252525250C
:1055B200818283E200E900EA00B500B600B700CDBF
:1055C200008301CC008A019201940121022302246A
:1055D200022502260227022A02B300B4006F0070DD
:1055E20000404D6D66011901AC001F0738075107D5
:00000001FF
